{
  "contractName": "MatryxSystem",
  "abi": [
    {
      "constant": true,
      "inputs": [
        {
          "name": "_sender",
          "type": "address"
        }
      ],
      "name": "isOwner",
      "outputs": [
        {
          "name": "_isOwner",
          "type": "bool"
        }
      ],
      "payable": false,
      "stateMutability": "view",
      "type": "function"
    },
    {
      "constant": true,
      "inputs": [],
      "name": "getOwner",
      "outputs": [
        {
          "name": "_owner",
          "type": "address"
        }
      ],
      "payable": false,
      "stateMutability": "view",
      "type": "function"
    },
    {
      "constant": true,
      "inputs": [],
      "name": "owner",
      "outputs": [
        {
          "name": "",
          "type": "address"
        }
      ],
      "payable": false,
      "stateMutability": "view",
      "type": "function"
    },
    {
      "constant": false,
      "inputs": [
        {
          "name": "newOwner",
          "type": "address"
        }
      ],
      "name": "transferOwnership",
      "outputs": [],
      "payable": false,
      "stateMutability": "nonpayable",
      "type": "function"
    },
    {
      "constant": false,
      "inputs": [
        {
          "name": "version",
          "type": "uint256"
        }
      ],
      "name": "createVersion",
      "outputs": [],
      "payable": false,
      "stateMutability": "nonpayable",
      "type": "function"
    },
    {
      "constant": false,
      "inputs": [
        {
          "name": "version",
          "type": "uint256"
        }
      ],
      "name": "setVersion",
      "outputs": [],
      "payable": false,
      "stateMutability": "nonpayable",
      "type": "function"
    },
    {
      "constant": true,
      "inputs": [],
      "name": "getVersion",
      "outputs": [
        {
          "name": "",
          "type": "uint256"
        }
      ],
      "payable": false,
      "stateMutability": "view",
      "type": "function"
    },
    {
      "constant": true,
      "inputs": [],
      "name": "getAllVersions",
      "outputs": [
        {
          "name": "",
          "type": "uint256[]"
        }
      ],
      "payable": false,
      "stateMutability": "view",
      "type": "function"
    },
    {
      "constant": false,
      "inputs": [
        {
          "name": "version",
          "type": "uint256"
        },
        {
          "name": "cName",
          "type": "bytes32"
        },
        {
          "name": "cAddress",
          "type": "address"
        }
      ],
      "name": "setContract",
      "outputs": [],
      "payable": false,
      "stateMutability": "nonpayable",
      "type": "function"
    },
    {
      "constant": true,
      "inputs": [
        {
          "name": "version",
          "type": "uint256"
        },
        {
          "name": "cName",
          "type": "bytes32"
        }
      ],
      "name": "getContract",
      "outputs": [
        {
          "name": "",
          "type": "address"
        }
      ],
      "payable": false,
      "stateMutability": "view",
      "type": "function"
    },
    {
      "constant": false,
      "inputs": [
        {
          "name": "version",
          "type": "uint256"
        },
        {
          "name": "cName",
          "type": "bytes32"
        },
        {
          "name": "selector",
          "type": "bytes32"
        },
        {
          "components": [
            {
              "name": "modifiedSelector",
              "type": "bytes32"
            },
            {
              "name": "injectedParams",
              "type": "uint256[]"
            },
            {
              "name": "dynamicParams",
              "type": "uint256[]"
            }
          ],
          "name": "fnData",
          "type": "tuple"
        }
      ],
      "name": "addContractMethod",
      "outputs": [],
      "payable": false,
      "stateMutability": "nonpayable",
      "type": "function"
    },
    {
      "constant": true,
      "inputs": [
        {
          "name": "version",
          "type": "uint256"
        },
        {
          "name": "cName",
          "type": "bytes32"
        },
        {
          "name": "selector",
          "type": "bytes32"
        }
      ],
      "name": "getContractMethod",
      "outputs": [
        {
          "components": [
            {
              "name": "modifiedSelector",
              "type": "bytes32"
            },
            {
              "name": "injectedParams",
              "type": "uint256[]"
            },
            {
              "name": "dynamicParams",
              "type": "uint256[]"
            }
          ],
          "name": "",
          "type": "tuple"
        }
      ],
      "payable": false,
      "stateMutability": "view",
      "type": "function"
    },
    {
      "constant": false,
      "inputs": [
        {
          "name": "cAddress",
          "type": "address"
        },
        {
          "name": "cType",
          "type": "uint256"
        }
      ],
      "name": "setContractType",
      "outputs": [],
      "payable": false,
      "stateMutability": "nonpayable",
      "type": "function"
    },
    {
      "constant": true,
      "inputs": [
        {
          "name": "cAddress",
          "type": "address"
        }
      ],
      "name": "getContractType",
      "outputs": [
        {
          "name": "",
          "type": "uint256"
        }
      ],
      "payable": false,
      "stateMutability": "view",
      "type": "function"
    },
    {
      "constant": false,
      "inputs": [
        {
          "name": "cType",
          "type": "uint256"
        },
        {
          "name": "lName",
          "type": "bytes32"
        }
      ],
      "name": "setLibraryName",
      "outputs": [],
      "payable": false,
      "stateMutability": "nonpayable",
      "type": "function"
    },
    {
      "constant": true,
      "inputs": [
        {
          "name": "cType",
          "type": "uint256"
        }
      ],
      "name": "getLibraryName",
      "outputs": [
        {
          "name": "",
          "type": "bytes32"
        }
      ],
      "payable": false,
      "stateMutability": "view",
      "type": "function"
    }
  ],
  "bytecode": "0x608060405260008054600160a060020a031916331790556110b0806100256000396000f3006080604052600436106100e55763ffffffff7c01000000000000000000000000000000000000000000000000000000006000350416630d8e6e2c81146100ea5780632f54bf6e146101155780632f922de4146101425780633b15aabf14610164578063408def1e1461019157806343c2a4d7146101b15780636167b31e146101d35780636226d738146101f3578063893d20e8146102135780638da5cb5b14610235578063c53cfd9a1461024a578063c9c743c71461026a578063d7c94d281461028a578063e11aa6a2146102aa578063e4682204146102ca578063f2fde38b146102ea575b600080fd5b3480156100f657600080fd5b506100ff61030a565b60405161010c9190610fa7565b60405180910390f35b34801561012157600080fd5b50610135610130366004610c00565b610311565b60405161010c9190610f99565b34801561014e57600080fd5b5061016261015d366004610c7e565b610332565b005b34801561017057600080fd5b5061018461017f366004610cea565b6103c2565b60405161010c9190610ff5565b34801561019d57600080fd5b506101626101ac366004610c60565b6104b4565b3480156101bd57600080fd5b506101c66104dd565b60405161010c9190610f88565b3480156101df57600080fd5b506101626101ee366004610d2d565b610535565b3480156101ff57600080fd5b5061016261020e366004610c26565b610676565b34801561021f57600080fd5b50610228610714565b60405161010c9190610f7a565b34801561024157600080fd5b50610228610730565b34801561025657600080fd5b50610228610265366004610c7e565b61074c565b34801561027657600080fd5b50610162610285366004610c60565b610786565b34801561029657600080fd5b506101626102a5366004610c9d565b61085e565b3480156102b657600080fd5b506100ff6102c5366004610c00565b61098b565b3480156102d657600080fd5b506100ff6102e5366004610c60565b6109b3565b3480156102f657600080fd5b50610162610305366004610c00565b6109c5565b6005545b90565b60005473ffffffffffffffffffffffffffffffffffffffff91821691161490565b6000805473ffffffffffffffffffffffffffffffffffffffff16331490600133600090815260016020526040902054149050818061036d5750805b15156103ae576040517f08c379a00000000000000000000000000000000000000000000000000000000081526004016103a590610fd5565b60405180910390fd5b505060009182526002602052604090912055565b6103ca610a52565b60008481526003602090815260408083208684526001908101835281842086855281018352928190208151606081018352815481529381018054835181860281018601909452808452919385810193929083018282801561044a57602002820191906000526020600020905b815481526020019060010190808311610436575b50505050508152602001600282018054806020026020016040519081016040528092919081815260200182805480156104a257602002820191906000526020600020905b81548152602001906001019080831161048e575b50505050508152505090509392505050565b60005473ffffffffffffffffffffffffffffffffffffffff1633146104d857600080fd5b600555565b6060600480548060200260200160405190810160405280929190818152602001828054801561052b57602002820191906000526020600020905b815481526020019060010190808311610517575b5050505050905090565b60005473ffffffffffffffffffffffffffffffffffffffff16331461055957600080fd5b60008481526003602052604090205460ff1615156105a3576040517f08c379a00000000000000000000000000000000000000000000000000000000081526004016103a590610fb5565b600084815260036020908152604080832086845260010190915290205473ffffffffffffffffffffffffffffffffffffffff16151561060e576040517f08c379a00000000000000000000000000000000000000000000000000000000081526004016103a590610fe5565b6000848152600360209081526040808320868452600190810183528184208685528101835292208351815581840151805185949293610651938501920190610a72565b506040820151805161066d916002840191602090910190610a72565b50505050505050565b6000805473ffffffffffffffffffffffffffffffffffffffff1633149060013360009081526001602052604090205414905081806106b15750805b15156106e9576040517f08c379a00000000000000000000000000000000000000000000000000000000081526004016103a590610fd5565b505073ffffffffffffffffffffffffffffffffffffffff909116600090815260016020526040902055565b60005473ffffffffffffffffffffffffffffffffffffffff1690565b60005473ffffffffffffffffffffffffffffffffffffffff1681565b600082815260036020908152604080832084845260010190915290205473ffffffffffffffffffffffffffffffffffffffff165b92915050565b60005473ffffffffffffffffffffffffffffffffffffffff1633146107aa57600080fd5b60008181526003602052604090205460ff16156107f3576040517f08c379a00000000000000000000000000000000000000000000000000000000081526004016103a590610fc5565b600081815260036020526040812080547fffffffffffffffffffffffffffffffffffffffffffffffffffffffffffffff001660019081179091556004805491820181559091527f8a35acfbc15ff81a39ae7d344fd709f28e8600b4aa8c65c6b64bfe7fe36bd19b0155565b60005473ffffffffffffffffffffffffffffffffffffffff16331461088257600080fd5b60008381526003602052604090205460ff1615156108cc576040517f08c379a00000000000000000000000000000000000000000000000000000000081526004016103a590610fb5565b600083815260036020908152604080832085845260010190915290205473ffffffffffffffffffffffffffffffffffffffff16151561092a576000838152600360209081526040822060020180546001810182559083529120018290555b600092835260036020908152604080852093855260019093019052912080547fffffffffffffffffffffffff00000000000000000000000000000000000000001673ffffffffffffffffffffffffffffffffffffffff909216919091179055565b73ffffffffffffffffffffffffffffffffffffffff1660009081526001602052604090205490565b60009081526002602052604090205490565b60005473ffffffffffffffffffffffffffffffffffffffff1633146109e957600080fd5b73ffffffffffffffffffffffffffffffffffffffff81161515610a0b57600080fd5b600080547fffffffffffffffffffffffff00000000000000000000000000000000000000001673ffffffffffffffffffffffffffffffffffffffff92909216919091179055565b604080516060818101835260008252602082018190529181019190915290565b828054828255906000526020600020908101928215610aad579160200282015b82811115610aad578251825591602001919060010190610a92565b50610ab9929150610abd565b5090565b61030e91905b80821115610ab95760008155600101610ac3565b6000610ae38235611058565b9392505050565b6000601f82018313610afb57600080fd5b8135610b0e610b098261102d565b611006565b91508181835260208401935060208101905083856020840282011115610b3357600080fd5b60005b83811015610b5f5781610b498882610b69565b8452506020928301929190910190600101610b36565b5050505092915050565b6000610ae3823561030e565b600060608284031215610b8757600080fd5b610b916060611006565b90506000610b9f8484610b69565b825250602082013567ffffffffffffffff811115610bbc57600080fd5b610bc884828501610aea565b602083015250604082013567ffffffffffffffff811115610be857600080fd5b610bf484828501610aea565b60408301525092915050565b600060208284031215610c1257600080fd5b6000610c1e8484610ad7565b949350505050565b60008060408385031215610c3957600080fd5b6000610c458585610ad7565b9250506020610c5685828601610b69565b9150509250929050565b600060208284031215610c7257600080fd5b6000610c1e8484610b69565b60008060408385031215610c9157600080fd5b6000610c458585610b69565b600080600060608486031215610cb257600080fd5b6000610cbe8686610b69565b9350506020610ccf86828701610b69565b9250506040610ce086828701610ad7565b9150509250925092565b600080600060608486031215610cff57600080fd5b6000610d0b8686610b69565b9350506020610d1c86828701610b69565b9250506040610ce086828701610b69565b60008060008060808587031215610d4357600080fd5b6000610d4f8787610b69565b9450506020610d6087828801610b69565b9350506040610d7187828801610b69565b925050606085013567ffffffffffffffff811115610d8e57600080fd5b610d9a87828801610b75565b91505092959194509250565b610daf81611058565b82525050565b6000610dc082611054565b808452602084019350610dd28361104e565b60005b82811015610e0257610de8868351610e62565b610df18261104e565b602096909601959150600101610dd5565b5093949350505050565b6000610e1782611054565b808452602084019350610e298361104e565b60005b82811015610e0257610e3f868351610e62565b610e488261104e565b602096909601959150600101610e2c565b610daf81611071565b610daf8161030e565b600f81527f4e6f20737563682076657273696f6e0000000000000000000000000000000000602082015260400190565b601681527f56657273696f6e20616c72656164792065786973747300000000000000000000602082015260400190565b601981527f4d757374206265206f776e6572206f7220506c6174666f726d00000000000000602082015260400190565b601081527f4e6f207375636820636f6e747261637400000000000000000000000000000000602082015260400190565b80516000906060840190610f3f8582610e62565b5060208301518482036020860152610f578282610e0c565b91505060408301518482036040860152610f718282610e0c565b95945050505050565b602081016107808284610da6565b60208082528101610ae38184610db5565b602081016107808284610e59565b602081016107808284610e62565b6020808252810161078081610e6b565b6020808252810161078081610e9b565b6020808252810161078081610ecb565b6020808252810161078081610efb565b60208082528101610ae38184610f2b565b60405181810167ffffffffffffffff8111828210171561102557600080fd5b604052919050565b600067ffffffffffffffff82111561104457600080fd5b5060209081020190565b60200190565b5190565b73ffffffffffffffffffffffffffffffffffffffff1690565b1515905600a265627a7a72305820b31fe324c404c27f213e75ac0fd70e34b216669c350589ac0da2bb08c97c52756c6578706572696d656e74616cf50037",
  "source": "pragma solidity ^0.4.24;\npragma experimental ABIEncoderV2;\n\nimport \"./Ownable.sol\";\n\ncontract MatryxSystem is Ownable() {\n    // Contains info for a version of Platform\n    struct Platform {\n        bool exists;\n        mapping(bytes32=>ContractData) contracts;\n        bytes32[] allContracts;\n    }\n\n    // Used to transform calls on a MatryxTrinity to its relevant library\n    struct FnData {\n        bytes32 modifiedSelector; // modified fn selector\n        uint256[] injectedParams; // what storage slots to insert\n        uint256[] dynamicParams;  // what params are dynamic\n    }\n\n    // Stores information about a currently deployed contract or library\n    struct ContractData {\n        address location;\n        mapping(bytes32=>FnData) fnData;\n    }\n\n    mapping(address=>uint256) contractType;\n    mapping(uint256=>bytes32) contractTypeToLibraryName;\n\n    mapping(uint256=>Platform) platformByVersion;\n    uint256[] allVersions;\n    uint256 currentVersion;\n\n    modifier onlyOwnerOrPlatform {\n        bool isOwner = msg.sender == owner;\n        bool isPlatform = contractType[msg.sender] == uint256(LibSystem.ContractType.Platform);\n        require(isOwner || isPlatform, \"Must be owner or Platform\");\n        _;\n    }\n\n    /// @dev Create a new version of Platform\n    function createVersion(uint256 version) public onlyOwner {\n        require(!platformByVersion[version].exists, \"Version already exists\");\n        platformByVersion[version].exists = true;\n        allVersions.push(version);\n    }\n\n    /// @dev Set the current version of Platform\n    function setVersion(uint256 version) public onlyOwner {\n        currentVersion = version;\n    }\n\n    /// @dev Get the current version of Platform\n    function getVersion() public view returns (uint256) {\n        return currentVersion;\n    }\n\n    /// @dev Get all versions of Platform\n    function getAllVersions() public view returns (uint256[]) {\n        return allVersions;\n    }\n\n    /// @dev Set a contract address for a contract by a given name\n    /// @param version   Version of Platform this contract belongs to\n    /// @param cName     Name of the contract we want to set an address for\n    /// @param cAddress  Address of the contract\n    function setContract(uint256 version, bytes32 cName, address cAddress) public onlyOwner {\n        require(platformByVersion[version].exists, \"No such version\");\n\n        if (platformByVersion[version].contracts[cName].location == 0x0) {\n            platformByVersion[version].allContracts.push(cName);\n        }\n\n        platformByVersion[version].contracts[cName].location = cAddress;\n    }\n\n    /// @dev Returns the address of a contract given its name\n    /// @param version  Version of Platform to lookup the address on\n    /// @param cName    Name of the contract we want an address for\n    /// @return         Address of the contract\n    function getContract(uint256 version, bytes32 cName) public view returns (address) {\n        return platformByVersion[version].contracts[cName].location;\n    }\n\n    /// @dev Register a contract method for a contract by its name\n    /// @param version   Version of Platform for contract method association\n    /// @param cName     Name of the contract we want an address for\n    /// @param selector  Hash of the method signature to register to the contract (keccak256)\n    /// @param fnData    Calldata transformation information for library delegatecall\n    function addContractMethod(uint256 version, bytes32 cName, bytes32 selector, FnData fnData) public onlyOwner {\n        require(platformByVersion[version].exists, \"No such version\");\n        require(platformByVersion[version].contracts[cName].location != 0x0, \"No such contract\");\n        platformByVersion[version].contracts[cName].fnData[selector] = fnData;\n    }\n\n    /// @dev Gets calldata transformation information for a library name and function selector\n    /// @param version   Version of Platform for the method request\n    /// @param cName     Name of the contract we want an address for\n    /// @param selector  Hash of the method signature to register to the contract (keccak256)\n    /// @return          Calldata transformation information for library delegatecall\n    function getContractMethod(uint256 version, bytes32 cName, bytes32 selector) public view returns (FnData) {\n        return platformByVersion[version].contracts[cName].fnData[selector];\n    }\n\n    /// @dev Associates a contract address with a type\n    /// @param cAddress  Address of the contract we want to set the type\n    /// @param cType     Type we want to associate the contract address with\n    function setContractType(address cAddress, uint256 cType) public onlyOwnerOrPlatform {\n        contractType[cAddress] = cType;\n    }\n\n    /// @dev Gets the associated type for a contract address\n    /// @param cAddress  Address of the contract we want to get the type for\n    function getContractType(address cAddress) public view returns (uint256) {\n        return contractType[cAddress];\n    }\n\n    /// @dev Associates a contract type with a library name\n    /// @param cType  Contract type\n    /// @param lName  Library name\n    function setLibraryName(uint256 cType, bytes32 lName) public onlyOwnerOrPlatform {\n        contractTypeToLibraryName[cType] = lName;\n    }\n\n    /// @dev Returns the library name for a given contract type\n    /// @param cType  Contract type\n    /// @return       Library name\n    function getLibraryName(uint256 cType) public view returns (bytes32) {\n        return contractTypeToLibraryName[cType];\n    }\n}\n\nlibrary LibSystem {\n    enum ContractType { Unknown, Platform, User, Tournament, Round, Submission }\n}",
  "sourcePath": "/Users/ajm13/Desktop/matryx/MatryxPlatform/contracts/MatryxSystem.sol",
  "compiler": {
    "name": "solc",
    "version": "0.4.24+commit.e67f0147.Emscripten.clang"
  },
  "schemaVersion": "2.0.1",
  "updatedAt": "2018-10-05T23:27:44.519Z"
}