{
  "contractName": "MatryxPlatform",
  "abi": [
    {
      "inputs": [
        {
          "name": "system",
          "type": "address"
        },
        {
          "name": "version",
          "type": "uint256"
        },
        {
          "name": "token",
          "type": "address"
        }
      ],
      "payable": false,
      "stateMutability": "nonpayable",
      "type": "constructor"
    },
    {
      "payable": false,
      "stateMutability": "nonpayable",
      "type": "fallback"
    },
    {
      "constant": true,
      "inputs": [],
      "name": "getInfo",
      "outputs": [
        {
          "components": [
            {
              "name": "system",
              "type": "address"
            },
            {
              "name": "version",
              "type": "uint256"
            },
            {
              "name": "token",
              "type": "address"
            },
            {
              "name": "owner",
              "type": "address"
            }
          ],
          "name": "",
          "type": "tuple"
        }
      ],
      "payable": false,
      "stateMutability": "view",
      "type": "function"
    },
    {
      "constant": false,
      "inputs": [
        {
          "name": "version",
          "type": "uint256"
        }
      ],
      "name": "setVersion",
      "outputs": [],
      "payable": false,
      "stateMutability": "nonpayable",
      "type": "function"
    },
    {
      "constant": false,
      "inputs": [
        {
          "name": "token",
          "type": "address"
        }
      ],
      "name": "setTokenAddress",
      "outputs": [],
      "payable": false,
      "stateMutability": "nonpayable",
      "type": "function"
    }
  ],
  "bytecode": "0x608060405234801561001057600080fd5b506040516060806106a9833981018060405261002f9190810190610092565b60008054600160a060020a03948516600160a060020a03199182161790915560019290925560028054919093169082161790915560038054909116331790556100ee565b600061007f82516100df565b9392505050565b600061007f82516100eb565b6000806000606084860312156100a757600080fd5b60006100b38686610073565b93505060206100c486828701610086565b92505060406100d586828701610073565b9150509250925092565b600160a060020a031690565b90565b6105ac806100fd6000396000f3006080604052600436106100565763ffffffff7c010000000000000000000000000000000000000000000000000000000060003504166326a4e8d2811461025a578063408def1e1461027c5780635a9b0b891461029c575b34801561006257600080fd5b507c01000000000000000000000000000000000000000000000000000000007f4c6962506c6174666f726d0000000000000000000000000000000000000000006040516000546001600001548463e11aa6a20260005233600452602060046024600080865af18015156100d457600080fd5b8563e468220402600052602060006024600080875af190508015156100f857600080fd5b60005185811461010f576020602460003760005192505b8663c53cfd9a028552826004860152806024860152602060006044876000885af1915081151561013e57600080fd5b60005187633b15aabf0286528360048701528160248701526004600060448801376000806064886000895af1925082151561017857600080fd5b3d6000873e855186016020810151810180516020820191506040830151830180516020820191503d8b019a5084518b5260048b01945033855230602086015260048c881415156101cf576020600460208801376040015b60408601955060005b848110156101f7576020818102870151885296909601956001016101d8565b5080360381873760005b8281101561022b576020818102850151810288018051600288019092029091019052600101610201565b50600284016020023682900301600401600080828f8b5af4995089151561025157600080fd5b3d60008e3e3d8df35b34801561026657600080fd5b5061027a610275366004610456565b6102c7565b005b34801561028857600080fd5b5061027a61029736600461047c565b610368565b3480156102a857600080fd5b506102b16103be565b6040516102be9190610548565b60405180910390f35b60035473ffffffffffffffffffffffffffffffffffffffff163314610321576040517f08c379a000000000000000000000000000000000000000000000000000000000815260040161031890610532565b60405180910390fd5b600280547fffffffffffffffffffffffff00000000000000000000000000000000000000001673ffffffffffffffffffffffffffffffffffffffff92909216919091179055565b60035473ffffffffffffffffffffffffffffffffffffffff1633146103b9576040517f08c379a000000000000000000000000000000000000000000000000000000000815260040161031890610532565b600155565b6103c6610410565b506040805160808101825260005473ffffffffffffffffffffffffffffffffffffffff90811682526001546020830152600254811692820192909252600354909116606082015290565b60408051608081018252600080825260208201819052918101829052606081019190915290565b60006104438235610556565b9392505050565b6000610443823561056f565b60006020828403121561046857600080fd5b60006104748484610437565b949350505050565b60006020828403121561048e57600080fd5b6000610474848461044a565b6104a381610556565b82525050565b601681527f4d75737420626520506c6174666f726d206f776e657200000000000000000000602082015260400190565b805160808301906104ea848261049a565b5060208201516104fd6020850182610529565b506040820151610510604085018261049a565b506060820151610523606085018261049a565b50505050565b6104a38161056f565b60208082528101610542816104a9565b92915050565b6080810161054282846104d9565b73ffffffffffffffffffffffffffffffffffffffff1690565b905600a265627a7a723058206b25ae8b2937e55e486b3caa6cdf594bbd077c5bab1d0555f785a2c383d021626c6578706572696d656e74616cf50037",
  "source": "pragma solidity ^0.4.24;\npragma experimental ABIEncoderV2;\n\nimport \"./SafeMath.sol\";\nimport \"./IMatryxToken.sol\";\nimport \"./LibGlobals.sol\";\n\nimport \"./MatryxSystem.sol\";\nimport \"./MatryxUser.sol\";\nimport \"./MatryxTournament.sol\";\nimport \"./MatryxRound.sol\";\nimport \"./MatryxSubmission.sol\";\n\ncontract MatryxPlatform {\n    struct Info {\n        address system;\n        uint256 version;\n        address token;\n        // mapping(uint256=>address) tokens;\n        address owner;\n    }\n\n    struct Data {\n        mapping(address=>LibTournament.TournamentData) tournaments;\n        mapping(address=>LibRound.RoundData) rounds;\n        mapping(address=>LibSubmission.SubmissionData) submissions;\n        mapping(address=>LibUser.UserData) users;\n        mapping(bytes32=>address[]) categories;\n        mapping(bytes32=>bool) categoryExists;\n\n        address[] allTournaments;\n        address[] allRounds;\n        address[] allSubmissions;\n        address[] allUsers;\n        bytes32[] allCategories;\n    }\n\n    Info info; // slot 0\n    Data data; // slot 4\n\n    constructor(address system, uint256 version, address token) public {\n        info.system = system;\n        info.version = version;\n        info.token = token;\n        info.owner = msg.sender;\n    }\n\n    /// @dev\n    /// 1) Uses msg.sender to ask MatryxSystem for the type of library this call should be forwarded to\n    /// 2) Uses this library type to lookup (in its own storage) the name of the library\n    /// 3) Uses this name to ask MatryxSystem for the address of the contract (under this platform's version)\n    /// 4) Uses name and signature to ask MatryxSystem for the data necessary to modify the incoming calldata\n    ///    so as to be appropriate for the associated library call\n    /// 5) Makes a delegatecall to the library address given by MatryxSystem with the library-appropriate calldata\n    function () public {\n        assembly {\n            // constants\n            let offset := 0x100000000000000000000000000000000000000000000000000000000\n            let libPlatform := 0x4c6962506c6174666f726d000000000000000000000000000000000000000000\n\n            let ptr := mload(0x40)                                              // scratch space for calldata\n            let system := sload(info_slot)                                      // load info.system address\n            let version := sload(add(info_slot, 1))                             // load info.version number\n\n            mstore(0, mul(0xe11aa6a2, offset))                                  // getContractType(address)\n            mstore(0x04, caller)                                                // arg 0 - contract\n            let res := call(gas, system, 0, 0, 0x24, 0x04, 0x20)                // call system.getContractType\n            if iszero(res) { revert(0, 0) }                                     // safety check\n\n            mstore(0, mul(0xe4682204, offset))                                  // getLibraryName(uint256)\n            res := call(gas, system, 0, 0, 0x24, 0, 0x20)                       // call system getLibraryName (arg 0 already in 0x04)\n            if iszero(res) { revert(0, 0) }                                     // safety check\n            let libName := mload(0)                                             // store libName from response\n\n            if iszero(eq(libName, libPlatform)) {                               // if coming from MatryxTrinity or MatryxUser\n                calldatacopy(0, 0x24, 0x20)                                     // get injected version from calldata\n                version := mload(0)                                             // overwrite version var\n            }\n\n            // call system and get library address\n            mstore(ptr, mul(0xc53cfd9a, offset))                                // getContract(uint256,bytes32)\n            mstore(add(ptr, 0x04), version)                                     // arg 0 - version\n            mstore(add(ptr, 0x24), libName)                                     // arg 1 - library name\n            res := call(gas, system, 0, ptr, 0x44, 0, 0x20)                     // call system.getContract\n            if iszero(res) { revert(0, 0) }                                     // safety check\n            let libAddress := mload(0)                                          // store libAddress from response\n\n            // get fnData from system\n            mstore(ptr, mul(0x3b15aabf, offset))                                // getContractMethod(uint256,bytes32,bytes32)\n            mstore(add(ptr, 0x04), version)                                     // arg 0 - version\n            mstore(add(ptr, 0x24), libName)                                     // arg 1 - library name\n            calldatacopy(add(ptr, 0x44), 0, 0x04)                               // arg 2 - fn selector\n            res := call(gas, system, 0, ptr, 0x64, 0, 0)                        // call system.getContractMethod\n            if iszero(res) { revert(0, 0) }                                     // safety check\n\n            returndatacopy(ptr, 0, returndatasize)                              // copy fnData into ptr\n            let ptr2 := add(ptr, mload(ptr))                                    // ptr2 is pointer to start of fnData\n\n            let m_injParams := add(ptr2, mload(add(ptr2, 0x20)))                // mem loc injected params\n            let injParams_len := mload(m_injParams)                             // num injected params\n            m_injParams := add(m_injParams, 0x20)                               // first injected param\n\n            let m_dynParams := add(ptr2, mload(add(ptr2, 0x40)))                // memory location of start of dynamic params\n            let dynParams_len := mload(m_dynParams)                             // num dynamic params\n            m_dynParams := add(m_dynParams, 0x20)                               // first dynamic param\n\n            // forward calldata to library\n            ptr := add(ptr, returndatasize)                                     // shift ptr to new scratch space\n            mstore(ptr, mload(ptr2))                                            // forward call with modified selector\n\n            ptr2 := add(ptr, 0x04)                                              // copy of ptr for keeping track of injected params\n\n            mstore(ptr2, caller)                                                // inject msg.sender\n            mstore(add(ptr2, 0x20), address)                                    // inject platform\n\n            let cdOffset := 0x04                                                // calldata offset, after signature\n\n            if iszero(eq(libName, libPlatform)) {                               // if coming from MatryxTrinity or MatryxUser\n                calldatacopy(add(ptr2, 0x20), 0x04, 0x20)                       // overwrite injected platform with address from forwarder\n                cdOffset := add(cdOffset, 0x40)                                 // shift calldata offset for injected address and version\n            }\n            ptr2 := add(ptr2, 0x40)                                             // shift ptr2 to account for injected addresses\n\n            for { let i := 0 } lt(i, injParams_len) { i := add(i, 1) } {        // loop through injected params and insert\n                let injParam := mload(add(m_injParams, mul(i, 0x20)))           // get injected param slot\n                mstore(ptr2, injParam)                                          // store injected params into next slot\n                ptr2 := add(ptr2, 0x20)                                         // shift ptr2 by a word for each injected\n            }\n\n            calldatacopy(ptr2, cdOffset, sub(calldatasize, cdOffset))           // copy calldata after injected data storage\n\n            // update dynamic params location\n            for { let i := 0 } lt(i, dynParams_len) { i := add(i, 1) } {\n                let idx := mload(add(m_dynParams, mul(i, 0x20)))                // get dynParam index in parameters\n                let loc := add(ptr2, mul(idx, 0x20))                            // get location in memory of dynParam\n                mstore(loc, add(mload(loc), mul(add(injParams_len, 2), 0x20)))  // shift dynParam location by num injected\n            }\n\n            // calculate size of forwarded call\n            let size := add(0x04, sub(calldatasize, cdOffset))                  // calldatasize minus injected\n            size := add(size, mul(add(injParams_len, 2), 0x20))                 // add size of injected\n\n            res := delegatecall(gas, libAddress, ptr, size, 0, 0)               // delegatecall to library\n            if iszero(res) { revert(0, 0) }                                     // safety check\n\n            returndatacopy(ptr, 0, returndatasize)                              // copy return data into ptr for returning\n            return(ptr, returndatasize)                                         // return forwarded call returndata\n        }\n    }\n\n    /// @dev Gets Information about the Platform\n    /// @return  Info Struct that contains directory, version, token, and owner\n    function getInfo() public view returns (MatryxPlatform.Info) {\n        return info;\n    }\n\n    /// @dev Sets the Version\n    /// @param version  New version\n    function setVersion(uint256 version) external {\n        require(msg.sender == info.owner, \"Must be Platform owner\");\n        info.version = version;\n    }\n\n    /// @dev Sets the Token address\n    /// @param token  Address of MatryxToken\n    function setTokenAddress(address token) external {\n        require(msg.sender == info.owner, \"Must be Platform owner\");\n        info.token = token;\n    }\n}\n\ninterface IMatryxPlatform {\n    function getInfo() external view returns (MatryxPlatform.Info);\n    function setVersion(uint256) external;\n    function setTokenAddress(address) external;\n\n    function isTournament(address) external view returns (bool);\n    function isRound(address) external view returns (bool);\n    function isSubmission(address) external view returns (bool);\n    function hasEnteredMatryx(address) external view returns (bool);\n\n    function getTournamentCount() external view returns (uint256);\n    function getUserCount() external view returns (uint256);\n    function getTournaments(uint256, uint256) external view returns (address[]);\n    function getTournamentsByCategory(bytes32, uint256, uint256) external view returns (address[]);\n    function getUsers(uint256, uint256) external view returns (address[]);\n    function getCategories(uint256, uint256) external view returns (bytes32[]);\n\n    function createCategory(bytes32) external;\n\n    function enterMatryx() external;\n    function addTournamentToCategory(address, bytes32) external;\n    function removeTournamentFromCategory(address) external;\n    function createTournament(LibTournament.TournamentDetails, LibRound.RoundDetails) external returns (address);\n}\n\nlibrary LibPlatform {\n    using SafeMath for uint256;\n\n    event TournamentCreated(address _tournamentAddress);\n\n    /// @dev Return if a Tournament exists\n    /// @param tAddress  Tournament address\n    /// @return          true if Tournament exists\n    function isTournament(address, address, MatryxPlatform.Data storage data, address tAddress) public view returns (bool) {\n        return data.tournaments[tAddress].info.owner != 0x0;\n    }\n\n    /// @dev Return if a Round exists\n    /// @param rAddress  Round address\n    /// @return          true if Round exists\n    function isRound(address, address, MatryxPlatform.Data storage data, address rAddress) public view returns (bool) {\n        return data.rounds[rAddress].info.tournament != 0x0;\n    }\n\n    /// @dev Return if a Submission exists\n    /// @param sAddress  Submission address\n    /// @return          true if Submission exists\n    function isSubmission(address, address, MatryxPlatform.Data storage data, address sAddress) public view returns (bool) {\n        return data.submissions[sAddress].info.owner != 0x0;\n    }\n\n    /// @dev Return if user has entered Matryx\n    /// @param data  Platform storage containing all contract data\n    /// @return      If user has entered Matryx\n    function hasEnteredMatryx(address, address, MatryxPlatform.Data storage data, address uAddress) public view returns (bool) {\n        return data.users[uAddress].exists;\n    }\n\n    /// @dev Return total number of Tournaments\n    /// @param data  Platform storage containing all contract data\n    /// @return      Number of Tournaments on Platform\n    function getTournamentCount(address, address, MatryxPlatform.Data storage data) public view returns (uint256) {\n        return data.allTournaments.length;\n    }\n\n    /// @dev Return total number of Users\n    /// @param data  Platform storage containing all contract data\n    /// @return      Number of Users on Platform\n    function getUserCount(address, address, MatryxPlatform.Data storage data) public view returns (uint256) {\n        return data.allUsers.length;\n    }\n\n    /// @dev Return count Tournaments starting at startIndex\n    /// @param info        Platform storage containing version number and system address\n    /// @param data        Platform storage containing all contract data\n    /// @param startIndex  Index of first Tournament to return\n    /// @param count       Number of Tournaments to return. If 0, all\n    /// @return            Array of Tournament addresses\n    function getTournaments(address, address, MatryxPlatform.Info storage info, MatryxPlatform.Data storage data, uint256 startIndex, uint256 count) public view returns (address[]) {\n        address libUtils = IMatryxSystem(info.system).getContract(info.version, \"LibUtils\");\n        address[] storage tournaments = data.allTournaments;\n\n        assembly {\n            let offset := 0x100000000000000000000000000000000000000000000000000000000\n            let ptr := mload(0x40)\n\n            mstore(ptr, mul(0xe79eda2c, offset))                                // getSubArray(bytes32[] storage,uint256,uint256)\n            mstore(add(ptr, 0x04), tournaments_slot)                            // data.allTournaments\n            mstore(add(ptr, 0x24), startIndex)                                  // arg 0 - startIndex\n            mstore(add(ptr, 0x44), count)                                       // arg 1 - count\n\n            let res := delegatecall(gas, libUtils, ptr, 0x64, 0, 0)             // call LibUtils.getSubArray\n            if iszero(res) { revert(0, 0) }                                     // safety check\n\n            returndatacopy(ptr, 0, returndatasize)                              // copy result into mem\n            return(ptr, returndatasize)                                         // return result\n        }\n    }\n\n    /// @dev Return all Tournaments for a category\n    /// @param info      Platform storage containing version number and system address\n    /// @param data      Platform storage containing all contract data\n    /// @param category  Category name to get\n    /// @param startIndex  Index of first User to return\n    /// @param count       Number of User to return. If 0, all\n    /// @return          Array of Tournament addresses for given category\n    function getTournamentsByCategory(address, address, MatryxPlatform.Info storage info, MatryxPlatform.Data storage data, bytes32 category, uint256 startIndex, uint256 count) public view returns (address[]) {\n        address libUtils = IMatryxSystem(info.system).getContract(info.version, \"LibUtils\");\n\n        assembly {\n            let offset := 0x100000000000000000000000000000000000000000000000000000000\n            let ptr := mload(0x40)\n\n            mstore(0, category)\n            mstore(0x20, add(data_slot, 4))                                     // data.categories\n            let s_category := keccak256(0, 0x40)                                // data.categories[category] slot\n\n            mstore(ptr, mul(0xe79eda2c, offset))                                // getSubArray(bytes32[] storage,uint256,uint256)\n            mstore(add(ptr, 0x04), s_category)                                  // data.categories[category]\n            mstore(add(ptr, 0x24), startIndex)                                  // arg 0 - startIndex\n            mstore(add(ptr, 0x44), count)                                       // arg 1 - count\n\n            let res := delegatecall(gas, libUtils, ptr, 0x64, 0, 0)             // call LibUtils.getSubArray\n            if iszero(res) { revert(0, 0) }                                     // safety check\n\n            returndatacopy(ptr, 0, returndatasize)                              // copy result into mem\n            return(ptr, returndatasize)                                         // return result\n        }\n    }\n\n    /// @dev Return count Users starting at startIndex\n    /// @param info        Platform storage containing version number and system address\n    /// @param data        Platform storage containing all contract data\n    /// @param startIndex  Index of first User to return\n    /// @param count       Number of User to return. If 0, all\n    /// @return            Array of User addresses\n    function getUsers(address, address, MatryxPlatform.Info storage info, MatryxPlatform.Data storage data, uint256 startIndex, uint256 count) public view returns (address[]) {\n        address libUtils = IMatryxSystem(info.system).getContract(info.version, \"LibUtils\");\n        address[] storage users = data.allUsers;\n\n        assembly {\n            let offset := 0x100000000000000000000000000000000000000000000000000000000\n            let ptr := mload(0x40)\n\n            mstore(ptr, mul(0xe79eda2c, offset))                                // getSubArray(bytes32[] storage,uint256,uint256)\n            mstore(add(ptr, 0x04), users_slot)                                  // data.allUsers\n            mstore(add(ptr, 0x24), startIndex)                                  // arg 0 - startIndex\n            mstore(add(ptr, 0x44), count)                                       // arg 1 - count\n\n            let res := delegatecall(gas, libUtils, ptr, 0x64, 0, 0)             // call LibUtils.getSubArray\n            if iszero(res) { revert(0, 0) }                                     // safety check\n\n            returndatacopy(ptr, 0, returndatasize)                              // copy result into mem\n            return(ptr, returndatasize)                                         // return result\n        }\n    }\n\n    /// @dev Return Categories in platform by index\n    /// @param info        Platform storage containing version number and system address\n    /// @param data        Platform storage containing all contract data\n    /// @param startIndex  Index of first Category to return\n    /// @param count       Number of Category to return. If 0, all\n    /// @return            Array of Categories\n    function getCategories(address, address, MatryxPlatform.Info storage info, MatryxPlatform.Data storage data, uint256 startIndex, uint256 count) public view returns (bytes32[]) {\n        address libUtils = IMatryxSystem(info.system).getContract(info.version, \"LibUtils\");\n        bytes32[] storage allCategories = data.allCategories;\n\n        assembly {\n            let offset := 0x100000000000000000000000000000000000000000000000000000000\n            let ptr := mload(0x40)\n\n            mstore(ptr, mul(0xe79eda2c, offset))                                // getSubArray(bytes32[] storage,uint256,uint256)\n            mstore(add(ptr, 0x04), allCategories_slot)                          // data.allCategories\n            mstore(add(ptr, 0x24), startIndex)                                  // arg 0 - startIndex\n            mstore(add(ptr, 0x44), count)                                       // arg 1 - count\n\n            let res := delegatecall(gas, libUtils, ptr, 0x64, 0, 0)             // call LibUtils.getSubArray\n            if iszero(res) { revert(0, 0) }                                     // safety check\n\n            returndatacopy(ptr, 0, returndatasize)                              // copy result into mem\n            return(ptr, returndatasize)                                         // return result\n        }\n    }\n\n    /// @dev Creates a category\n    /// @param sender    msg.sender to Platform\n    /// @param info      Platform storage containing version number and system address\n    /// @param data      Platform storage containing all contract data and users\n    /// @param category  Category to create\n    function createCategory(address sender, address, MatryxPlatform.Info storage info, MatryxPlatform.Data storage data, bytes32 category) public {\n        require(sender == info.owner, \"Must be Platform owner\");\n        require(!data.categoryExists[category], \"Category already exists\");\n\n        data.allCategories.push(category);\n        data.categoryExists[category] = true;\n    }\n\n    /// @dev Enter Matryx\n    /// @param sender  msg.sender to Platform\n    /// @param info    Platform storage containing version number and system address\n    /// @param data    Platform storage containing all contract data and users\n    function enterMatryx(address sender, address, MatryxPlatform.Info storage info, MatryxPlatform.Data storage data) public {\n        require(!data.users[sender].exists, \"Already entered Matryx\");\n        require(IMatryxToken(info.token).balanceOf(sender) > 0, \"Must have MTX\");\n\n        data.users[sender].exists = true;\n        data.users[sender].timeEntered = now;\n        data.allUsers.push(sender);\n    }\n\n    /// @dev Adds a Tournament to a category\n    /// @param data      Platform storage containing all contract data\n    /// @param tAddress  Tournament address\n    /// @param category  Category name\n    function addTournamentToCategory(address sender, address platform, MatryxPlatform.Info storage info, MatryxPlatform.Data storage data, address tAddress, bytes32 category) public {\n        require(sender == platform || IMatryxSystem(info.system).getContractType(sender) == uint256(LibSystem.ContractType.Tournament), \"Must come from Platform or Tournament\");\n        require(data.categoryExists[category], \"Category does not exist\");\n\n        data.categories[category].push(tAddress);\n        data.tournaments[tAddress].details.category = category;\n    }\n\n    /// @dev Removes a Tournament from its current category\n    /// @param data      Platform storage containing all contract data\n    /// @param tAddress  Tournament address\n    function removeTournamentFromCategory(address sender, address platform, MatryxPlatform.Info storage info, MatryxPlatform.Data storage data, address tAddress) public {\n        require(sender == platform || IMatryxSystem(info.system).getContractType(sender) == uint256(LibSystem.ContractType.Tournament), \"Must come from Platform or Tournament\");\n\n        address libUtils = IMatryxSystem(info.system).getContract(info.version, \"LibUtils\");\n        bytes32 category = data.tournaments[tAddress].details.category;\n        address[] storage categoryList = data.categories[category];\n        uint256 index;\n\n        for (index = 0; index < categoryList.length; index++) {\n            if (categoryList[index] == tAddress) break;\n        }\n\n        assembly {\n            let offset := 0x100000000000000000000000000000000000000000000000000000000\n            let ptr := mload(0x40)\n\n            mstore(ptr, mul(0x4a71ede8, offset))                        // removeArrayElement(bytes32[] storage,uint256)\n            mstore(add(ptr, 0x04), categoryList_slot)                   // arg 0 - data.categories[tournament.category]\n            mstore(add(ptr, 0x24), index)                               // arg 1 - index\n\n            let res := delegatecall(gas, libUtils, ptr, 0x44, 0, 0)     // call LibUtils.removeArrayElement\n            if iszero(res) { revert(0, 0) }                             // safety check\n        }\n    }\n\n    /// @dev Creates a Tournament\n    /// @param sender    msg.sender to Platform\n    /// @param info      Platform storage containing version number and system address\n    /// @param data      Platform storage containing all contract data and users\n    /// @param tDetails  Tournament details (title, category, descHash, fileHash, bounty, entryFee)\n    /// @param rDetails  Round details (start, end, review, bounty)\n    /// @return          Address of the created Tournament\n    function createTournament(address sender, address platform, MatryxPlatform.Info storage info, MatryxPlatform.Data storage data, LibTournament.TournamentDetails tDetails, LibRound.RoundDetails rDetails) public returns (address) {\n        require(data.users[sender].exists, \"Must have entered Matryx\");\n        require(tDetails.bounty > 0, \"Tournament bounty must be greater than 0\");\n        require(rDetails.bounty <= tDetails.bounty, \"Round bounty cannot exceed Tournament bounty\");\n        require(IMatryxToken(info.token).allowance(sender, this) >= tDetails.bounty, \"Insufficient MTX\");\n\n        address tAddress = new MatryxTournament(info.version, info.system);\n\n        IMatryxSystem(info.system).setContractType(tAddress, uint256(LibSystem.ContractType.Tournament));\n        data.allTournaments.push(tAddress);\n        addTournamentToCategory(address(this), platform, info, data, tAddress, tDetails.category);\n\n        LibUser.UserData storage user = data.users[sender];\n        user.tournaments.push(tAddress);\n        user.totalSpent = user.totalSpent.add(tDetails.bounty);\n\n        LibTournament.TournamentData storage tournament = data.tournaments[tAddress];\n        tournament.info.version = info.version;\n        tournament.info.owner = sender;\n        tournament.details = tDetails;\n\n        require(IMatryxToken(info.token).transferFrom(sender, tAddress, tDetails.bounty), \"Transfer failed\");\n\n        bytes32 libName = IMatryxSystem(info.system).getLibraryName(uint256(LibSystem.ContractType.Tournament));\n        address libTournament = IMatryxSystem(info.system).getContract(info.version, libName);\n        assembly {\n            let offset := 0x100000000000000000000000000000000000000000000000000000000\n            let ptr := mload(0x40)\n\n            mstore(ptr, mul(0xca0ba8b4, offset))                            // createRound(address,address,MatryxPlatform.Info storage,MatryxPlatform.Data storage,LibRound.RoundDetails)\n            mstore(add(ptr, 0x04), tAddress)                                // arg 0 - self\n            mstore(add(ptr, 0x24), sender)                                  // arg 1 - sender\n            mstore(add(ptr, 0x44), info_slot)                               // arg 2 - info\n            mstore(add(ptr, 0x64), data_slot)                               // arg 3 - data\n            calldatacopy(add(ptr, 0x84), sub(calldatasize, 0x80), 0x80)     // arg 4 - rDetails\n\n            let res := delegatecall(gas, libTournament, ptr, 0x104, 0, 0)   // call LibTournament.createRound\n            if iszero(res) { revert(0, 0) }                                 // safety check\n        }\n        // LibTournament.createRound(tAddress, this, info, data, rDetails);\n\n        emit TournamentCreated(tAddress);\n        return tAddress;\n    }\n}\n",
  "sourcePath": "/Users/ajm13/Desktop/matryx/MatryxPlatform/contracts/MatryxPlatform.sol",
  "compiler": {
    "name": "solc",
    "version": "0.4.24+commit.e67f0147.Emscripten.clang"
  },
  "schemaVersion": "2.0.1",
  "updatedAt": "2018-11-07T00:08:29.379Z"
}