{
  "contractName": "MatryxPlatform",
  "abi": [
    {
      "inputs": [
        {
          "name": "system",
          "type": "address"
        },
        {
          "name": "version",
          "type": "uint256"
        },
        {
          "name": "token",
          "type": "address"
        }
      ],
      "payable": false,
      "stateMutability": "nonpayable",
      "type": "constructor"
    },
    {
      "payable": false,
      "stateMutability": "nonpayable",
      "type": "fallback"
    },
    {
      "constant": true,
      "inputs": [],
      "name": "getInfo",
      "outputs": [
        {
          "components": [
            {
              "name": "system",
              "type": "address"
            },
            {
              "name": "version",
              "type": "uint256"
            },
            {
              "name": "token",
              "type": "address"
            },
            {
              "name": "owner",
              "type": "address"
            }
          ],
          "name": "",
          "type": "tuple"
        }
      ],
      "payable": false,
      "stateMutability": "view",
      "type": "function"
    },
    {
      "constant": false,
      "inputs": [
        {
          "name": "token",
          "type": "address"
        }
      ],
      "name": "setTokenAddress",
      "outputs": [],
      "payable": false,
      "stateMutability": "nonpayable",
      "type": "function"
    }
  ],
  "bytecode": "0x608060405234801561001057600080fd5b506040516060806105ea833981018060405261002f9190810190610092565b60008054600160a060020a03948516600160a060020a03199182161790915560019290925560028054919093169082161790915560038054909116331790556100ee565b600061007f82516100df565b9392505050565b600061007f82516100eb565b6000806000606084860312156100a757600080fd5b60006100b38686610073565b93505060206100c486828701610086565b92505060406100d586828701610073565b9150509250925092565b600160a060020a031690565b90565b6104ed806100fd6000396000f30060806040526004361061004b5763ffffffff7c010000000000000000000000000000000000000000000000000000000060003504166326a4e8d2811461023b5780635a9b0b891461025d575b34801561005757600080fd5b507c01000000000000000000000000000000000000000000000000000000007f4c6962506c6174666f726d0000000000000000000000000000000000000000006040516000546001600001548463e11aa6a20260005233600452602060046024600080865af18015156100c957600080fd5b8563e468220402600052602060006024600080875af190508015156100ed57600080fd5b6000518663c53cfd9a028552826004860152806024860152602060006044876000885af1915081151561011f57600080fd5b60005187633b15aabf0286528360048701528160248701526004600060448801376000806064886000895af1925082151561015957600080fd5b3d6000873e855186016020810151810180516020820191506040830151830180516020820191503d8b019a5084518b5260048b01945033855230602086015260048c881415156101b0576020600460208801376020015b60408601955060005b848110156101d8576020818102870151885296909601956001016101b9565b5080360381873760005b8281101561020c5760208181028501518102880180516002880190920290910190526001016101e2565b50600284016020023682900301600401600080828f8b5af4995089151561023257600080fd5b3d60008e3e3d8df35b34801561024757600080fd5b5061025b6102563660046103b5565b610288565b005b34801561026957600080fd5b50610272610329565b60405161027f9190610489565b60405180910390f35b60035473ffffffffffffffffffffffffffffffffffffffff1633146102e2576040517f08c379a00000000000000000000000000000000000000000000000000000000081526004016102d990610473565b60405180910390fd5b600280547fffffffffffffffffffffffff00000000000000000000000000000000000000001673ffffffffffffffffffffffffffffffffffffffff92909216919091179055565b61033161037b565b506040805160808101825260005473ffffffffffffffffffffffffffffffffffffffff90811682526001546020830152600254811692820192909252600354909116606082015290565b60408051608081018252600080825260208201819052918101829052606081019190915290565b60006103ae8235610497565b9392505050565b6000602082840312156103c757600080fd5b60006103d384846103a2565b949350505050565b6103e481610497565b82525050565b601681527f4d75737420626520506c6174666f726d206f776e657200000000000000000000602082015260400190565b8051608083019061042b84826103db565b50602082015161043e602085018261046a565b50604082015161045160408501826103db565b50606082015161046460608501826103db565b50505050565b6103e4816104b0565b60208082528101610483816103ea565b92915050565b60808101610483828461041a565b73ffffffffffffffffffffffffffffffffffffffff1690565b905600a265627a7a72305820fd99d922b3dbe22f089215e4712bc65e5a58cf90a07e53c529dff4eac61432a26c6578706572696d656e74616cf50037",
  "source": "pragma solidity ^0.4.24;\npragma experimental ABIEncoderV2;\n\nimport \"./SafeMath.sol\";\nimport \"./IMatryxToken.sol\";\nimport \"./LibGlobals.sol\";\n\nimport \"./MatryxSystem.sol\";\nimport \"./MatryxUser.sol\";\nimport \"./MatryxTournament.sol\";\nimport \"./MatryxRound.sol\";\nimport \"./MatryxSubmission.sol\";\n\ncontract MatryxPlatform {\n    struct Info {\n        address system;\n        uint256 version;\n        address token;\n        address owner;\n    }\n\n    struct Data {\n        mapping(address=>LibTournament.TournamentData) tournaments;\n        mapping(address=>LibRound.RoundData) rounds;\n        mapping(address=>LibSubmission.SubmissionData) submissions;\n        mapping(address=>LibUser.UserData) users;\n        mapping(bytes32=>address[]) categories;\n        mapping(bytes32=>bool) categoryExists;\n\n        address[] allTournaments;\n        address[] allRounds;\n        address[] allSubmissions;\n        address[] allUsers;\n        bytes32[] allCategories;\n    }\n\n    Info info; // slot 0\n    Data data; // slot 4\n\n    constructor(address system, uint256 version, address token) public {\n        info.system = system;\n        info.version = version;\n        info.token = token;\n        info.owner = msg.sender;\n    }\n\n    /// @dev\n    /// 1) Uses msg.sender to ask MatryxSystem for the type of library this call should be forwarded to\n    /// 2) Uses this library type to lookup (in its own storage) the name of the library\n    /// 3) Uses this name to ask MatryxSystem for the address of the contract (under this platform's version)\n    /// 4) Uses name and signature to ask MatryxSystem for the data necessary to modify the incoming calldata\n    ///    so as to be appropriate for the associated library call\n    /// 5) Makes a delegatecall to the library address given by MatryxSystem with the library-appropriate calldata\n    function () public {\n        assembly {\n            // constants\n            let offset := 0x100000000000000000000000000000000000000000000000000000000\n            let libPlatform := 0x4c6962506c6174666f726d000000000000000000000000000000000000000000\n\n            let ptr := mload(0x40)                                              // scratch space for calldata\n            let system := sload(info_slot)                                      // load info.system address\n            let version := sload(add(info_slot, 1))                             // load info.version number\n\n            mstore(0, mul(0xe11aa6a2, offset))                                  // getContractType(address)\n            mstore(0x04, caller)                                                // arg 0 - contract\n            let res := call(gas, system, 0, 0, 0x24, 0x04, 0x20)                // call system.getContractType\n            if iszero(res) { revert(0, 0) }                                     // safety check\n\n            mstore(0, mul(0xe4682204, offset))                                  // getLibraryName(uint256)\n            res := call(gas, system, 0, 0, 0x24, 0, 0x20)                       // call system getLibraryName (arg 0 already in 0x04)\n            if iszero(res) { revert(0, 0) }                                     // safety check\n            let libName := mload(0)                                             // store libName from response\n\n            // call system and get library address\n            mstore(ptr, mul(0xc53cfd9a, offset))                                // getContract(uint256,bytes32)\n            mstore(add(ptr, 0x04), version)                                     // arg 0 - version\n            mstore(add(ptr, 0x24), libName)                                     // arg 1 - library name\n            res := call(gas, system, 0, ptr, 0x44, 0, 0x20)                     // call system.getContract\n            if iszero(res) { revert(0, 0) }                                     // safety check\n            let libAddress := mload(0)                                          // store libAddress from response\n\n            // get fnData from system\n            mstore(ptr, mul(0x3b15aabf, offset))                                // getContractMethod(uint256,bytes32,bytes32)\n            mstore(add(ptr, 0x04), version)                                     // arg 0 - version\n            mstore(add(ptr, 0x24), libName)                                     // arg 1 - library name\n            calldatacopy(add(ptr, 0x44), 0, 0x04)                               // arg 2 - fn selector\n            res := call(gas, system, 0, ptr, 0x64, 0, 0)                        // call system.getContractMethod\n            if iszero(res) { revert(0, 0) }                                     // safety check\n\n            returndatacopy(ptr, 0, returndatasize)                              // copy fnData into ptr\n            let ptr2 := add(ptr, mload(ptr))                                    // ptr2 is pointer to start of fnData\n\n            let m_injParams := add(ptr2, mload(add(ptr2, 0x20)))                // mem loc injected params\n            let injParams_len := mload(m_injParams)                             // num injected params\n            m_injParams := add(m_injParams, 0x20)                               // first injected param\n\n            let m_dynParams := add(ptr2, mload(add(ptr2, 0x40)))                // memory location of start of dynamic params\n            let dynParams_len := mload(m_dynParams)                             // num dynamic params\n            m_dynParams := add(m_dynParams, 0x20)                               // first dynamic param\n\n            // forward calldata to library\n            ptr := add(ptr, returndatasize)                                     // shift ptr to new scratch space\n            mstore(ptr, mload(ptr2))                                            // forward call with modified selector\n\n            ptr2 := add(ptr, 0x04)                                              // copy of ptr for keeping track of injected params\n\n            mstore(ptr2, caller)                                                // inject msg.sender\n            mstore(add(ptr2, 0x20), address)                                    // inject platform\n\n            let cdOffset := 0x04                                                // calldata offset, after signature\n\n            if iszero(eq(libName, libPlatform)) {                               // if coming from MatryxTrinity or MatryxUser\n                calldatacopy(add(ptr2, 0x20), 0x04, 0x20)                       // overwrite injected platform with address from forwarder\n                cdOffset := add(cdOffset, 0x20)                                 // shift calldata offset for injected address\n            }\n            ptr2 := add(ptr2, 0x40)                                             // shift ptr2\n\n            for { let i := 0 } lt(i, injParams_len) { i := add(i, 1) } {        // loop through injected params and insert\n                let injParam := mload(add(m_injParams, mul(i, 0x20)))           // get injected param slot\n                mstore(ptr2, injParam)                                          // store injected params into next slot\n                ptr2 := add(ptr2, 0x20)                                         // shift ptr2\n            }\n\n            calldatacopy(ptr2, cdOffset, sub(calldatasize, cdOffset))           // copy calldata after injected data storage\n\n            // update dynamic params location\n            for { let i := 0 } lt(i, dynParams_len) { i := add(i, 1) } {\n                let idx := mload(add(m_dynParams, mul(i, 0x20)))                // get dynParam index in parameters\n                let loc := add(ptr2, mul(idx, 0x20))                            // get location in memory of dynParam\n                mstore(loc, add(mload(loc), mul(add(injParams_len, 2), 0x20)))  // shift dynParam location by num injected\n            }\n\n            // calculate size of forwarded call\n            let size := add(0x04, sub(calldatasize, cdOffset))                  // calldatasize minus injected\n            size := add(size, mul(add(injParams_len, 2), 0x20))                 // add size of injected\n\n            res := delegatecall(gas, libAddress, ptr, size, 0, 0)               // delegatecall to library\n            if iszero(res) { revert(0, 0) }                                     // safety check\n\n            returndatacopy(ptr, 0, returndatasize)                              // copy return data into ptr for returning\n            return(ptr, returndatasize)                                         // return forwarded call returndata\n        }\n    }\n\n    /// @dev    Gets Information about the Platform\n    /// @return Info Struct that contains system, version, token, and owner\n    function getInfo() public view returns (MatryxPlatform.Info) {\n        return info;\n    }\n\n    /// @dev Sets the Token address\n    /// @param token  Address of MatryxToken\n    function setTokenAddress(address token) external {\n        require(msg.sender == info.owner, \"Must be Platform owner\");\n        info.token = token;\n    }\n}\n\ninterface IMatryxPlatform {\n    function getInfo() external view returns (MatryxPlatform.Info);\n    function setTokenAddress(address) external;\n\n    function hasEnteredMatryx(address) external view returns (bool);\n\n    function getTournamentCount() external view returns (uint256);\n    function getUserCount() external view returns (uint256);\n    function getTournaments(uint256, uint256) external view returns (address[]);\n    function getTournamentsByCategory(bytes32, uint256, uint256) external view returns (address[]);\n    function getUsers(uint256, uint256) external view returns (address[]);\n    function getCategories(uint256, uint256) external view returns (bytes32[]);\n\n    function createCategory(bytes32) external;\n\n    function enterMatryx() external;\n    function addTournamentToCategory(address, bytes32) external;\n    function removeTournamentFromCategory(address) external;\n    function createTournament(LibTournament.TournamentDetails, LibRound.RoundDetails) external returns (address);\n}\n\n// dependencies: LibTournament\nlibrary LibPlatform {\n    using SafeMath for uint256;\n\n    event TournamentCreated(address _tournamentAddress);\n\n    /// @dev Return if user has entered Matryx\n    /// @param data  Platform storage containing all contract data\n    /// @return      If user has entered Matryx\n    function hasEnteredMatryx(address, address, MatryxPlatform.Data storage data, address uAddress) public view returns (bool) {\n        return data.users[uAddress].exists;\n    }\n\n    /// @dev Return total number of Tournaments\n    /// @param data  Platform storage containing all contract data\n    /// @return      Number of Tournaments on Platform\n    function getTournamentCount(address, address, MatryxPlatform.Data storage data) public view returns (uint256) {\n        return data.allTournaments.length;\n    }\n\n    /// @dev Return total number of Users\n    /// @param data  Platform storage containing all contract data\n    /// @return      Number of Users on Platform\n    function getUserCount(address, address, MatryxPlatform.Data storage data) public view returns (uint256) {\n        return data.allUsers.length;\n    }\n\n    /// @dev Return count Tournaments starting at startIndex\n    /// @param info        Platform storage containing version number and system address\n    /// @param data        Platform storage containing all contract data\n    /// @param startIndex  Index of first Tournament to return\n    /// @param count       Number of Tournaments to return. If 0, all\n    /// @return            Array of Tournament addresses\n    function getTournaments(address, address, MatryxPlatform.Info storage info, MatryxPlatform.Data storage data, uint256 startIndex, uint256 count) public view returns (address[]) {\n        address LibUtils = MatryxSystem(info.system).getContract(info.version, \"LibUtils\");\n        address[] storage tournaments = data.allTournaments;\n\n        assembly {\n            let offset := 0x100000000000000000000000000000000000000000000000000000000\n            let ptr := mload(0x40)\n\n            mstore(ptr, mul(0xe79eda2c, offset))                                // getSubArray(bytes32[] storage,uint256,uint256)\n            mstore(add(ptr, 0x04), tournaments_slot)                            // data.allTournaments\n            mstore(add(ptr, 0x24), startIndex)                                  // arg 0 - startIndex\n            mstore(add(ptr, 0x44), count)                                       // arg 1 - count\n\n            let res := delegatecall(gas, LibUtils, ptr, 0x64, 0, 0)             // call LibUtils.getSubArray\n            if iszero(res) { revert(0, 0) }                                     // safety check\n\n            returndatacopy(ptr, 0, returndatasize)                              // copy result into mem\n            return(ptr, returndatasize)                                         // return result\n        }\n    }\n\n    /// @dev Return all Tournaments for a category\n    /// @param info      Platform storage containing version number and system address\n    /// @param data      Platform storage containing all contract data\n    /// @param category  Category name to get\n    /// @param startIndex  Index of first User to return\n    /// @param count       Number of User to return. If 0, all\n    /// @return          Array of Tournament addresses for given category\n    function getTournamentsByCategory(address, address, MatryxPlatform.Info storage info, MatryxPlatform.Data storage data, bytes32 category, uint256 startIndex, uint256 count) public view returns (address[]) {\n        address LibUtils = MatryxSystem(info.system).getContract(info.version, \"LibUtils\");\n\n        assembly {\n            let offset := 0x100000000000000000000000000000000000000000000000000000000\n            let ptr := mload(0x40)\n\n            mstore(0, category)\n            mstore(0x20, add(data_slot, 4))                                     // data.categories\n            let s_category := keccak256(0, 0x40)                                // data.categories[category] slot\n\n            mstore(ptr, mul(0xe79eda2c, offset))                                // getSubArray(bytes32[] storage,uint256,uint256)\n            mstore(add(ptr, 0x04), s_category)                                  // data.categories[category]\n            mstore(add(ptr, 0x24), startIndex)                                  // arg 0 - startIndex\n            mstore(add(ptr, 0x44), count)                                       // arg 1 - count\n\n            let res := delegatecall(gas, LibUtils, ptr, 0x64, 0, 0)             // call LibUtils.getSubArray\n            if iszero(res) { revert(0, 0) }                                     // safety check\n\n            returndatacopy(ptr, 0, returndatasize)                              // copy result into mem\n            return(ptr, returndatasize)                                         // return result\n        }\n    }\n\n    /// @dev Return count Users starting at startIndex\n    /// @param info        Platform storage containing version number and system address\n    /// @param data        Platform storage containing all contract data\n    /// @param startIndex  Index of first User to return\n    /// @param count       Number of User to return. If 0, all\n    /// @return            Array of User addresses\n    function getUsers(address, address, MatryxPlatform.Info storage info, MatryxPlatform.Data storage data, uint256 startIndex, uint256 count) public view returns (address[]) {\n        address LibUtils = MatryxSystem(info.system).getContract(info.version, \"LibUtils\");\n        address[] storage users = data.allUsers;\n\n        assembly {\n            let offset := 0x100000000000000000000000000000000000000000000000000000000\n            let ptr := mload(0x40)\n\n            mstore(ptr, mul(0xe79eda2c, offset))                                // getSubArray(bytes32[] storage,uint256,uint256)\n            mstore(add(ptr, 0x04), users_slot)                                  // data.allUsers\n            mstore(add(ptr, 0x24), startIndex)                                  // arg 0 - startIndex\n            mstore(add(ptr, 0x44), count)                                       // arg 1 - count\n\n            let res := delegatecall(gas, LibUtils, ptr, 0x64, 0, 0)             // call LibUtils.getSubArray\n            if iszero(res) { revert(0, 0) }                                     // safety check\n\n            returndatacopy(ptr, 0, returndatasize)                              // copy result into mem\n            return(ptr, returndatasize)                                         // return result\n        }\n    }\n\n    /// @dev Return Categories in platform by index\n    /// @param info        Platform storage containing version number and system address\n    /// @param data        Platform storage containing all contract data\n    /// @param startIndex  Index of first Category to return\n    /// @param count       Number of Category to return. If 0, all\n    /// @return            Array of Categories\n    function getCategories(address, address, MatryxPlatform.Info storage info, MatryxPlatform.Data storage data, uint256 startIndex, uint256 count) public view returns (bytes32[]) {\n        address LibUtils = MatryxSystem(info.system).getContract(info.version, \"LibUtils\");\n        bytes32[] storage allCategories = data.allCategories;\n\n        assembly {\n            let offset := 0x100000000000000000000000000000000000000000000000000000000\n            let ptr := mload(0x40)\n\n            mstore(ptr, mul(0xe79eda2c, offset))                                // getSubArray(bytes32[] storage,uint256,uint256)\n            mstore(add(ptr, 0x04), allCategories_slot)                          // data.allCategories\n            mstore(add(ptr, 0x24), startIndex)                                  // arg 0 - startIndex\n            mstore(add(ptr, 0x44), count)                                       // arg 1 - count\n\n            let res := delegatecall(gas, LibUtils, ptr, 0x64, 0, 0)             // call LibUtils.getSubArray\n            if iszero(res) { revert(0, 0) }                                     // safety check\n\n            returndatacopy(ptr, 0, returndatasize)                              // copy result into mem\n            return(ptr, returndatasize)                                         // return result\n        }\n    }\n\n    /// @dev Creates a category\n    /// @param sender    msg.sender to Platform\n    /// @param info      Platform storage containing version number and system address\n    /// @param data      Platform storage containing all contract data and users\n    /// @param category  Category to create\n    function createCategory(address sender, address, MatryxPlatform.Info storage info, MatryxPlatform.Data storage data, bytes32 category) public {\n        require(sender == info.owner, \"Must be Platform owner\");\n        require(!data.categoryExists[category], \"Category already exists\");\n\n        data.allCategories.push(category);\n        data.categoryExists[category] = true;\n    }\n\n    /// @dev Enter Matryx\n    /// @param sender  msg.sender to Platform\n    /// @param info    Platform storage containing version number and system address\n    /// @param data    Platform storage containing all contract data and users\n    function enterMatryx(address sender, address, MatryxPlatform.Info storage info, MatryxPlatform.Data storage data) public {\n        require(!data.users[sender].exists, \"Already entered Matryx\");\n        require(IMatryxToken(info.token).balanceOf(sender) > 0, \"Must have MTX\");\n\n        data.users[sender].exists = true;\n        data.allUsers.push(sender);\n    }\n\n    /// @dev Adds a Tournament to a category\n    /// @param data      Platform storage containing all contract data\n    /// @param tAddress  Tournament address\n    /// @param category  Category name\n    function addTournamentToCategory(address sender, address platform, MatryxPlatform.Info storage info, MatryxPlatform.Data storage data, address tAddress, bytes32 category) public {\n        require(sender == platform || MatryxSystem(info.system).getContractType(sender) == uint256(LibSystem.ContractType.Tournament), \"Must come from Platform or Tournament\");\n        require(data.categoryExists[category], \"Category does not exist\");\n\n        data.categories[category].push(tAddress);\n        data.tournaments[tAddress].details.category = category;\n    }\n\n    /// @dev Removes a Tournament from its current category\n    /// @param data      Platform storage containing all contract data\n    /// @param tAddress  Tournament address\n    function removeTournamentFromCategory(address sender, address platform, MatryxPlatform.Info storage info, MatryxPlatform.Data storage data, address tAddress) public {\n        require(sender == platform || MatryxSystem(info.system).getContractType(sender) == uint256(LibSystem.ContractType.Tournament), \"Must come from Platform or Tournament\");\n\n        address LibUtils = MatryxSystem(info.system).getContract(info.version, \"LibUtils\");\n        bytes32 category = data.tournaments[tAddress].details.category;\n        address[] storage categoryList = data.categories[category];\n        uint256 index;\n\n        for (index = 0; index < categoryList.length; index++) {\n            if (categoryList[index] == tAddress) break;\n        }\n\n        assembly {\n            let offset := 0x100000000000000000000000000000000000000000000000000000000\n            let ptr := mload(0x40)\n\n            mstore(ptr, mul(0x4a71ede8, offset))                        // removeArrayElement(bytes32[] storage,uint256)\n            mstore(add(ptr, 0x04), categoryList_slot)                   // arg 0 - data.categories[tournament.category]\n            mstore(add(ptr, 0x24), index)                               // arg 1 - index\n\n            let res := delegatecall(gas, LibUtils, ptr, 0x44, 0, 0)     // call LibUtils.removeArrayElement\n            if iszero(res) { revert(0, 0) }                             // safety check\n        }\n    }\n\n    /// @dev Creates a Tournament\n    /// @param sender    msg.sender to Platform\n    /// @param info      Platform storage containing version number and system address\n    /// @param data      Platform storage containing all contract data and users\n    /// @param tDetails  Tournament details (title, category, descHash, fileHash, bounty, entryFee)\n    /// @param rDetails  Round details (start, end, review, bounty)\n    /// @return          Address of the created Tournament\n    function createTournament(address sender, address platform, MatryxPlatform.Info storage info, MatryxPlatform.Data storage data, LibTournament.TournamentDetails tDetails, LibRound.RoundDetails rDetails) public returns (address) {\n        require(data.users[sender].exists, \"Must have entered Matryx\");\n        require(tDetails.bounty > 0, \"Tournament bounty must be greater than 0\");\n        require(rDetails.bounty <= tDetails.bounty, \"Round bounty cannot exceed Tournament bounty\");\n        require(IMatryxToken(info.token).allowance(sender, this) >= tDetails.bounty, \"Insufficient MTX\");\n\n        address tAddress = new MatryxTournament(info.version, info.system);\n\n        MatryxSystem(info.system).setContractType(tAddress, uint256(LibSystem.ContractType.Tournament));\n        data.allTournaments.push(tAddress);\n        addTournamentToCategory(address(this), platform, info, data, tAddress, tDetails.category);\n\n        LibUser.UserData storage user = data.users[sender];\n        user.tournaments.push(tAddress);\n        user.totalSpent = user.totalSpent.add(tDetails.bounty);\n\n        LibTournament.TournamentData storage tournament = data.tournaments[tAddress];\n        tournament.info.owner = sender;\n        tournament.details = tDetails;\n\n        require(IMatryxToken(info.token).transferFrom(sender, tAddress, tDetails.bounty), \"Transfer failed\");\n\n        // TODO: lookup on system, and use assembly to delegatecall\n        // NOTE: if LibTournament is redeployed, relink and redeploy LibPlatform\n        LibTournament.createRound(tAddress, sender, info, data, rDetails);\n\n        emit TournamentCreated(tAddress);\n        return tAddress;\n    }\n}\n\n/**\n\np.enterMatryx()\ntoken.approve(p.address, toWei(100))\ntData = [stb('title', 3), stb('category'), stb('descHash', 2), stb('fileHash', 2), toWei(100), toWei(2)]\nstart = Math.floor(Date.now() / 1000) + 30\nrData = [start, start + 30, 30, toWei(10)]\np.createTournament(tData, rData)\np.getTournaments(0,0).then(ts => t = contract(ts.pop(), IMatryxTournament));0\nt.getRounds().then(rs => r = contract(rs.pop(), IMatryxRound));0\nr.getSubmissions().then(ss => s = contract(ss.pop(), IMatryxSubmission));0\n\n */\n",
  "sourcePath": "/Users/ajm13/Desktop/matryx/MatryxPlatform/contracts/MatryxPlatform.sol",
  "compiler": {
    "name": "solc",
    "version": "0.4.24+commit.e67f0147.Emscripten.clang"
  },
  "schemaVersion": "2.0.1",
  "updatedAt": "2018-10-16T18:11:09.721Z"
}