{
  "contractName": "MatryxSystem",
  "abi": [
    {
      "constant": true,
      "inputs": [
        {
          "name": "_sender",
          "type": "address"
        }
      ],
      "name": "isOwner",
      "outputs": [
        {
          "name": "_isOwner",
          "type": "bool"
        }
      ],
      "payable": false,
      "stateMutability": "view",
      "type": "function"
    },
    {
      "constant": true,
      "inputs": [],
      "name": "getOwner",
      "outputs": [
        {
          "name": "_owner",
          "type": "address"
        }
      ],
      "payable": false,
      "stateMutability": "view",
      "type": "function"
    },
    {
      "constant": true,
      "inputs": [],
      "name": "owner",
      "outputs": [
        {
          "name": "",
          "type": "address"
        }
      ],
      "payable": false,
      "stateMutability": "view",
      "type": "function"
    },
    {
      "constant": false,
      "inputs": [
        {
          "name": "newOwner",
          "type": "address"
        }
      ],
      "name": "transferOwnership",
      "outputs": [],
      "payable": false,
      "stateMutability": "nonpayable",
      "type": "function"
    },
    {
      "constant": false,
      "inputs": [
        {
          "name": "version",
          "type": "uint256"
        }
      ],
      "name": "createVersion",
      "outputs": [],
      "payable": false,
      "stateMutability": "nonpayable",
      "type": "function"
    },
    {
      "constant": false,
      "inputs": [
        {
          "name": "version",
          "type": "uint256"
        }
      ],
      "name": "setVersion",
      "outputs": [],
      "payable": false,
      "stateMutability": "nonpayable",
      "type": "function"
    },
    {
      "constant": true,
      "inputs": [],
      "name": "getVersion",
      "outputs": [
        {
          "name": "",
          "type": "uint256"
        }
      ],
      "payable": false,
      "stateMutability": "view",
      "type": "function"
    },
    {
      "constant": true,
      "inputs": [],
      "name": "getAllVersions",
      "outputs": [
        {
          "name": "",
          "type": "uint256[]"
        }
      ],
      "payable": false,
      "stateMutability": "view",
      "type": "function"
    },
    {
      "constant": false,
      "inputs": [
        {
          "name": "version",
          "type": "uint256"
        },
        {
          "name": "cName",
          "type": "bytes32"
        },
        {
          "name": "cAddress",
          "type": "address"
        }
      ],
      "name": "setContract",
      "outputs": [],
      "payable": false,
      "stateMutability": "nonpayable",
      "type": "function"
    },
    {
      "constant": true,
      "inputs": [
        {
          "name": "version",
          "type": "uint256"
        },
        {
          "name": "cName",
          "type": "bytes32"
        }
      ],
      "name": "getContract",
      "outputs": [
        {
          "name": "",
          "type": "address"
        }
      ],
      "payable": false,
      "stateMutability": "view",
      "type": "function"
    },
    {
      "constant": false,
      "inputs": [
        {
          "name": "version",
          "type": "uint256"
        },
        {
          "name": "cName",
          "type": "bytes32"
        },
        {
          "name": "selector",
          "type": "bytes32"
        },
        {
          "components": [
            {
              "name": "modifiedSelector",
              "type": "bytes32"
            },
            {
              "name": "injectedParams",
              "type": "uint256[]"
            },
            {
              "name": "dynamicParams",
              "type": "uint256[]"
            }
          ],
          "name": "fnData",
          "type": "tuple"
        }
      ],
      "name": "addContractMethod",
      "outputs": [],
      "payable": false,
      "stateMutability": "nonpayable",
      "type": "function"
    },
    {
      "constant": false,
      "inputs": [
        {
          "name": "version",
          "type": "uint256"
        },
        {
          "name": "cName",
          "type": "bytes32"
        },
        {
          "name": "selectors",
          "type": "bytes32[]"
        },
        {
          "name": "modifiedSelectors",
          "type": "bytes32[]"
        },
        {
          "components": [
            {
              "name": "modifiedSelector",
              "type": "bytes32"
            },
            {
              "name": "injectedParams",
              "type": "uint256[]"
            },
            {
              "name": "dynamicParams",
              "type": "uint256[]"
            }
          ],
          "name": "fnData",
          "type": "tuple"
        }
      ],
      "name": "addContractMethods",
      "outputs": [],
      "payable": false,
      "stateMutability": "nonpayable",
      "type": "function"
    },
    {
      "constant": true,
      "inputs": [
        {
          "name": "version",
          "type": "uint256"
        },
        {
          "name": "cName",
          "type": "bytes32"
        },
        {
          "name": "selector",
          "type": "bytes32"
        }
      ],
      "name": "getContractMethod",
      "outputs": [
        {
          "components": [
            {
              "name": "modifiedSelector",
              "type": "bytes32"
            },
            {
              "name": "injectedParams",
              "type": "uint256[]"
            },
            {
              "name": "dynamicParams",
              "type": "uint256[]"
            }
          ],
          "name": "",
          "type": "tuple"
        }
      ],
      "payable": false,
      "stateMutability": "view",
      "type": "function"
    },
    {
      "constant": false,
      "inputs": [
        {
          "name": "cAddress",
          "type": "address"
        },
        {
          "name": "cType",
          "type": "uint256"
        }
      ],
      "name": "setContractType",
      "outputs": [],
      "payable": false,
      "stateMutability": "nonpayable",
      "type": "function"
    },
    {
      "constant": true,
      "inputs": [
        {
          "name": "cAddress",
          "type": "address"
        }
      ],
      "name": "getContractType",
      "outputs": [
        {
          "name": "",
          "type": "uint256"
        }
      ],
      "payable": false,
      "stateMutability": "view",
      "type": "function"
    },
    {
      "constant": false,
      "inputs": [
        {
          "name": "cType",
          "type": "uint256"
        },
        {
          "name": "lName",
          "type": "bytes32"
        }
      ],
      "name": "setLibraryName",
      "outputs": [],
      "payable": false,
      "stateMutability": "nonpayable",
      "type": "function"
    },
    {
      "constant": true,
      "inputs": [
        {
          "name": "cType",
          "type": "uint256"
        }
      ],
      "name": "getLibraryName",
      "outputs": [
        {
          "name": "",
          "type": "bytes32"
        }
      ],
      "payable": false,
      "stateMutability": "view",
      "type": "function"
    }
  ],
  "bytecode": "0x608060405260008054600160a060020a031916331790556114f3806100256000396000f3006080604052600436106100f05763ffffffff7c01000000000000000000000000000000000000000000000000000000006000350416630d8e6e2c81146100f55780632f54bf6e146101205780632f922de41461014d5780633b15aabf1461016f578063408def1e1461019c57806343c2a4d7146101bc5780636167b31e146101de5780636226d738146101fe57806373c028631461021e578063893d20e81461023e5780638da5cb5b14610260578063c53cfd9a14610275578063c9c743c714610295578063d7c94d28146102b5578063e11aa6a2146102d5578063e4682204146102f5578063f2fde38b14610315575b600080fd5b34801561010157600080fd5b5061010a610335565b60405161011791906113da565b60405180910390f35b34801561012c57600080fd5b5061014061013b366004610f1a565b61033c565b60405161011791906113cc565b34801561015957600080fd5b5061016d610168366004610f98565b61035d565b005b34801561017b57600080fd5b5061018f61018a3660046110c1565b6103ed565b6040516101179190611438565b3480156101a857600080fd5b5061016d6101b7366004610f7a565b610554565b3480156101c857600080fd5b506101d161057d565b60405161011791906113bb565b3480156101ea57600080fd5b5061016d6101f9366004611104565b6105d5565b34801561020a57600080fd5b5061016d610219366004610f40565b6106ab565b34801561022a57600080fd5b5061016d610239366004611004565b61078a565b34801561024a57600080fd5b5061025361093b565b60405161011791906113a7565b34801561026c57600080fd5b50610253610957565b34801561028157600080fd5b50610253610290366004610f98565b610973565b3480156102a157600080fd5b5061016d6102b0366004610f7a565b6109ee565b3480156102c157600080fd5b5061016d6102d0366004610fb7565b610ac6565b3480156102e157600080fd5b5061010a6102f0366004610f1a565b610c34565b34801561030157600080fd5b5061010a610310366004610f7a565b610c5c565b34801561032157600080fd5b5061016d610330366004610f1a565b610c6e565b6005545b90565b60005473ffffffffffffffffffffffffffffffffffffffff91821691161490565b6000805473ffffffffffffffffffffffffffffffffffffffff1633149060013360009081526001602052604090205414905081806103985750805b15156103d9576040517f08c379a00000000000000000000000000000000000000000000000000000000081526004016103d090611428565b60405180910390fd5b505060009182526002602052604090912055565b6103f5610d03565b600084815260036020908152604080832086845260010190915290205473ffffffffffffffffffffffffffffffffffffffff1661043181610cfb565b1515610469576040517f08c379a00000000000000000000000000000000000000000000000000000000081526004016103d0906113e8565b6000858152600360209081526040808320878452600190810183528184208785528101835292819020815160608101835281548152938101805483518186028101860190945280845291938581019392908301828280156104e957602002820191906000526020600020905b8154815260200190600101908083116104d5575b505050505081526020016002820180548060200260200160405190810160405280929190818152602001828054801561054157602002820191906000526020600020905b81548152602001906001019080831161052d575b5050505050815250509150509392505050565b60005473ffffffffffffffffffffffffffffffffffffffff16331461057857600080fd5b600555565b606060048054806020026020016040519081016040528092919081815260200182805480156105cb57602002820191906000526020600020905b8154815260200190600101908083116105b7575b5050505050905090565b60005473ffffffffffffffffffffffffffffffffffffffff1633146105f957600080fd5b60008481526003602052604090205460ff161515610643576040517f08c379a00000000000000000000000000000000000000000000000000000000081526004016103d0906113f8565b6000848152600360209081526040808320868452600190810183528184208685528101835292208351815581840151805185949293610686938501920190610d23565b50604082015180516106a2916002840191602090910190610d23565b50505050505050565b6000805473ffffffffffffffffffffffffffffffffffffffff1633149060013360009081526001602052604090205414905081806106e65750805b151561071e576040517f08c379a00000000000000000000000000000000000000000000000000000000081526004016103d090611428565b61072784610cfb565b151561075f576040517f08c379a00000000000000000000000000000000000000000000000000000000081526004016103d0906113e8565b505073ffffffffffffffffffffffffffffffffffffffff909116600090815260016020526040902055565b6000805473ffffffffffffffffffffffffffffffffffffffff1633146107af57600080fd5b60008681526003602052604090205460ff1615156107f9576040517f08c379a00000000000000000000000000000000000000000000000000000000081526004016103d0906113f8565b8251845114610834576040517f08c379a00000000000000000000000000000000000000000000000000000000081526004016103d090611408565b5060005b83518110156109335760008681526003602090815260408083208884526001908101909252822086518593919092019187908590811061087457fe5b60209081029091018101518252818101929092526040016000208251815582820151805191926108ac92600185019290910190610d23565b50604082015180516108c8916002840191602090910190610d23565b50508351849150829081106108d957fe5b602090810290910181015160008881526003835260408082208983526001908101909452812087519293019187908590811061091157fe5b6020908102909101810151825281019190915260400160002055600101610838565b505050505050565b60005473ffffffffffffffffffffffffffffffffffffffff1690565b60005473ffffffffffffffffffffffffffffffffffffffff1681565b600082815260036020908152604080832084845260010190915281205473ffffffffffffffffffffffffffffffffffffffff166109af81610cfb565b15156109e7576040517f08c379a00000000000000000000000000000000000000000000000000000000081526004016103d0906113e8565b9392505050565b60005473ffffffffffffffffffffffffffffffffffffffff163314610a1257600080fd5b60008181526003602052604090205460ff1615610a5b576040517f08c379a00000000000000000000000000000000000000000000000000000000081526004016103d090611418565b600081815260036020526040812080547fffffffffffffffffffffffffffffffffffffffffffffffffffffffffffffff001660019081179091556004805491820181559091527f8a35acfbc15ff81a39ae7d344fd709f28e8600b4aa8c65c6b64bfe7fe36bd19b0155565b60005473ffffffffffffffffffffffffffffffffffffffff163314610aea57600080fd5b60008381526003602052604090205460ff161515610b34576040517f08c379a00000000000000000000000000000000000000000000000000000000081526004016103d0906113f8565b610b3d81610cfb565b1515610b75576040517f08c379a00000000000000000000000000000000000000000000000000000000081526004016103d0906113e8565b600083815260036020908152604080832085845260010190915290205473ffffffffffffffffffffffffffffffffffffffff161515610bd3576000838152600360209081526040822060020180546001810182559083529120018290555b600092835260036020908152604080852093855260019093019052912080547fffffffffffffffffffffffff00000000000000000000000000000000000000001673ffffffffffffffffffffffffffffffffffffffff909216919091179055565b73ffffffffffffffffffffffffffffffffffffffff1660009081526001602052604090205490565b60009081526002602052604090205490565b60005473ffffffffffffffffffffffffffffffffffffffff163314610c9257600080fd5b73ffffffffffffffffffffffffffffffffffffffff81161515610cb457600080fd5b600080547fffffffffffffffffffffffff00000000000000000000000000000000000000001673ffffffffffffffffffffffffffffffffffffffff92909216919091179055565b6000903b1190565b604080516060818101835260008252602082018190529181019190915290565b828054828255906000526020600020908101928215610d5e579160200282015b82811115610d5e578251825591602001919060010190610d43565b50610d6a929150610d6e565b5090565b61033991905b80821115610d6a5760008155600101610d74565b60006109e7823561149b565b6000601f82018313610da557600080fd5b8135610db8610db382611470565b611449565b91508181835260208401935060208101905083856020840282011115610ddd57600080fd5b60005b83811015610e095781610df38882610e83565b8452506020928301929190910190600101610de0565b5050505092915050565b6000601f82018313610e2457600080fd5b8135610e32610db382611470565b91508181835260208401935060208101905083856020840282011115610e5757600080fd5b60005b83811015610e095781610e6d8882610e83565b8452506020928301929190910190600101610e5a565b60006109e78235610339565b600060608284031215610ea157600080fd5b610eab6060611449565b90506000610eb98484610e83565b825250602082013567ffffffffffffffff811115610ed657600080fd5b610ee284828501610e13565b602083015250604082013567ffffffffffffffff811115610f0257600080fd5b610f0e84828501610e13565b60408301525092915050565b600060208284031215610f2c57600080fd5b6000610f388484610d88565b949350505050565b60008060408385031215610f5357600080fd5b6000610f5f8585610d88565b9250506020610f7085828601610e83565b9150509250929050565b600060208284031215610f8c57600080fd5b6000610f388484610e83565b60008060408385031215610fab57600080fd5b6000610f5f8585610e83565b600080600060608486031215610fcc57600080fd5b6000610fd88686610e83565b9350506020610fe986828701610e83565b9250506040610ffa86828701610d88565b9150509250925092565b600080600080600060a0868803121561101c57600080fd5b60006110288888610e83565b955050602061103988828901610e83565b945050604086013567ffffffffffffffff81111561105657600080fd5b61106288828901610d94565b935050606086013567ffffffffffffffff81111561107f57600080fd5b61108b88828901610d94565b925050608086013567ffffffffffffffff8111156110a857600080fd5b6110b488828901610e8f565b9150509295509295909350565b6000806000606084860312156110d657600080fd5b60006110e28686610e83565b93505060206110f386828701610e83565b9250506040610ffa86828701610e83565b6000806000806080858703121561111a57600080fd5b60006111268787610e83565b945050602061113787828801610e83565b935050604061114887828801610e83565b925050606085013567ffffffffffffffff81111561116557600080fd5b61117187828801610e8f565b91505092959194509250565b6111868161149b565b82525050565b600061119782611497565b8084526020840193506111a983611491565b60005b828110156111d9576111bf868351611239565b6111c882611491565b6020969096019591506001016111ac565b5093949350505050565b60006111ee82611497565b80845260208401935061120083611491565b60005b828110156111d957611216868351611239565b61121f82611491565b602096909601959150600101611203565b611186816114b4565b61118681610339565b601881527f496e76616c696420636f6e747261637420616464726573730000000000000000602082015260400190565b600f81527f4e6f20737563682076657273696f6e0000000000000000000000000000000000602082015260400190565b602681527f4c697374206f662073656c6563746f7273206d757374206d6174636820696e2060208201527f6c656e6774680000000000000000000000000000000000000000000000000000604082015260600190565b601681527f56657273696f6e20616c72656164792065786973747300000000000000000000602082015260400190565b601981527f4d757374206265206f776e6572206f7220506c6174666f726d00000000000000602082015260400190565b8051600090606084019061136c8582611239565b506020830151848203602086015261138482826111e3565b9150506040830151848203604086015261139e82826111e3565b95945050505050565b602081016113b5828461117d565b92915050565b602080825281016109e7818461118c565b602081016113b58284611230565b602081016113b58284611239565b602080825281016113b581611242565b602080825281016113b581611272565b602080825281016113b5816112a2565b602080825281016113b5816112f8565b602080825281016113b581611328565b602080825281016109e78184611358565b60405181810167ffffffffffffffff8111828210171561146857600080fd5b604052919050565b600067ffffffffffffffff82111561148757600080fd5b5060209081020190565b60200190565b5190565b73ffffffffffffffffffffffffffffffffffffffff1690565b1515905600a265627a7a723058200aa176232cdefba7a8d6eb52627dd3286227b0f0fab7bb1db4552db8452099f96c6578706572696d656e74616cf50037",
  "source": "pragma solidity ^0.4.24;\npragma experimental ABIEncoderV2;\n\nimport \"./Ownable.sol\";\n\ncontract MatryxSystem is Ownable() {\n    // Contains info for a version of Platform\n    struct Platform {\n        bool exists;\n        mapping(bytes32=>ContractData) contracts;\n        bytes32[] allContracts;\n    }\n\n    // Used to transform calls on a MatryxTrinity to its relevant library\n    struct FnData {\n        bytes32 modifiedSelector; // modified fn selector\n        uint256[] injectedParams; // what storage slots to insert\n        uint256[] dynamicParams;  // what params are dynamic\n    }\n\n    // Stores information about a currently deployed contract or library\n    struct ContractData {\n        address location;\n        mapping(bytes32=>FnData) fnData;\n    }\n\n    mapping(address=>uint256) contractType;\n    mapping(uint256=>bytes32) contractTypeToLibraryName;\n\n    mapping(uint256=>Platform) platformByVersion;\n    uint256[] allVersions;\n    uint256 currentVersion;\n\n    modifier onlyOwnerOrPlatform {\n        bool isOwner = msg.sender == owner;\n        bool isPlatform = contractType[msg.sender] == uint256(LibSystem.ContractType.Platform);\n        require(isOwner || isPlatform, \"Must be owner or Platform\");\n        _;\n    }\n\n    /// @dev Checks the validity of a contract address\n    function isContract(address _address) private view returns(bool) {\n        uint256 _size;\n        assembly { _size := extcodesize(_address) }\n        return _size > 0;\n    }\n\n    /// @dev Create a new version of Platform\n    function createVersion(uint256 version) public onlyOwner {\n        require(!platformByVersion[version].exists, \"Version already exists\");\n        platformByVersion[version].exists = true;\n        allVersions.push(version);\n    }\n\n    /// @dev Set the current version of Platform\n    function setVersion(uint256 version) public onlyOwner {\n        currentVersion = version;\n    }\n\n    /// @dev Get the current version of Platform\n    function getVersion() public view returns (uint256) {\n        return currentVersion;\n    }\n\n    /// @dev Get all versions of Platform\n    function getAllVersions() public view returns (uint256[]) {\n        return allVersions;\n    }\n\n    /// @dev Set a contract address for a contract by a given name\n    /// @param version   Version of Platform this contract belongs to\n    /// @param cName     Name of the contract we want to set an address for\n    /// @param cAddress  Address of the contract\n    function setContract(uint256 version, bytes32 cName, address cAddress) public onlyOwner {\n        require(platformByVersion[version].exists, \"No such version\");\n        require(isContract(cAddress), \"Invalid contract address\");\n\n        if (platformByVersion[version].contracts[cName].location == 0x0) {\n            platformByVersion[version].allContracts.push(cName);\n        }\n\n        platformByVersion[version].contracts[cName].location = cAddress;\n    }\n\n    /// @dev Returns the address of a contract given its name\n    /// @param version  Version of Platform to lookup the address on\n    /// @param cName    Name of the contract we want an address for\n    /// @return         Address of the contract\n    function getContract(uint256 version, bytes32 cName) public view returns (address) {\n        address cAddress = platformByVersion[version].contracts[cName].location;\n        require(isContract(cAddress), \"Invalid contract address\");\n\n        return cAddress;\n    }\n\n    /// @dev Register a contract method for a contract by its name\n    /// @param version   Version of Platform for contract method association\n    /// @param cName     Name of the contract we want an address for\n    /// @param selector  Hash of the method signature to register to the contract (keccak256)\n    /// @param fnData    Calldata transformation information for library delegatecall\n    function addContractMethod(uint256 version, bytes32 cName, bytes32 selector, FnData fnData) public onlyOwner {\n        require(platformByVersion[version].exists, \"No such version\");\n        platformByVersion[version].contracts[cName].fnData[selector] = fnData;\n    }\n\n    /// @dev Batch register contract methods for a contract by its name, that share the same injected and dynamic params\n    /// @param version            Version of Platform for contract method association\n    /// @param cName              Name of the contract we want an address for\n    /// @param selectors          Hashes of the method signatures to register to the contract (keccak256)\n    /// @param modifiedSelectors  Hashes of the library-specific method signatures to register to the contract (keccak256)\n    /// @param fnData             Calldata transformation information for library delegatecall\n    function addContractMethods(uint256 version, bytes32 cName, bytes32[] selectors, bytes32[] modifiedSelectors, FnData fnData) public onlyOwner {\n        require(platformByVersion[version].exists, \"No such version\");\n        require(selectors.length == modifiedSelectors.length, \"List of selectors must match in length\");\n\n        for (uint256 i = 0; i < selectors.length; i++) {\n            platformByVersion[version].contracts[cName].fnData[selectors[i]] = fnData;\n            platformByVersion[version].contracts[cName].fnData[selectors[i]].modifiedSelector = modifiedSelectors[i];\n        }\n    }\n\n    /// @dev Gets calldata transformation information for a library name and function selector\n    /// @param version   Version of Platform for the method request\n    /// @param cName     Name of the contract we want an address for\n    /// @param selector  Hash of the method signature to register to the contract (keccak256)\n    /// @return          Calldata transformation information for library delegatecall\n    function getContractMethod(uint256 version, bytes32 cName, bytes32 selector) public view returns (FnData) {\n        address cAddress = platformByVersion[version].contracts[cName].location;\n        require(isContract(cAddress), \"Invalid contract address\");\n\n        return platformByVersion[version].contracts[cName].fnData[selector];\n    }\n\n    /// @dev Associates a contract address with a type\n    /// @param cAddress  Address of the contract we want to set the type\n    /// @param cType     Type we want to associate the contract address with\n    function setContractType(address cAddress, uint256 cType) public onlyOwnerOrPlatform {\n        require(isContract(cAddress), \"Invalid contract address\");\n        contractType[cAddress] = cType;\n    }\n\n    /// @dev Gets the associated type for a contract address\n    /// @param cAddress  Address of the contract we want to get the type for\n    function getContractType(address cAddress) public view returns (uint256) {\n        return contractType[cAddress];\n    }\n\n    /// @dev Associates a contract type with a library name\n    /// @param cType  Contract type\n    /// @param lName  Library name\n    function setLibraryName(uint256 cType, bytes32 lName) public onlyOwnerOrPlatform {\n        contractTypeToLibraryName[cType] = lName;\n    }\n\n    /// @dev Returns the library name for a given contract type\n    /// @param cType  Contract type\n    /// @return       Library name\n    function getLibraryName(uint256 cType) public view returns (bytes32) {\n        return contractTypeToLibraryName[cType];\n    }\n}\n\nlibrary LibSystem {\n    enum ContractType { Unknown, Platform, User, Tournament, Round, Submission }\n}\n",
  "sourcePath": "/Users/ajm13/Desktop/matryx/MatryxPlatform/contracts/MatryxSystem.sol",
  "compiler": {
    "name": "solc",
    "version": "0.4.24+commit.e67f0147.Emscripten.clang"
  },
  "schemaVersion": "2.0.1",
  "updatedAt": "2018-10-16T18:11:10.229Z"
}